:020000040800F2
:10000000000F0020D500000879240008F321000823
:1000100000000000000000000000000000000000E0
:10002000000000000000000000000000052700089C
:1000300000000000000000003B250008352F0008EC
:10004000E700000800000000E7000008E7000008E3
:10005000E7000008E7000008E7000008E7000008E4
:1000600000000000AD020008BD020008E700000823
:10007000E7000008E7000008E700000800000000B3
:10008000E70000080000000000000000C52F000885
:1000900000000000E7000008E7000008E700000893
:1000A000E7000008E7000008E7000008953A0008AC
:1000B000E700000800000000000000000000000051
:1000C0000348854600F0ACF800480047F53B0008BF
:1000D000000F00200448804704480047FEE7FEE781
:1000E000FEE7FEE7FEE7FEE7B52F0008C1000008C7
:1000F00030B50B46014600202022012409E00D46C0
:10010000D5409D4205D31D469540491B2546954047
:1001100040191546521E002DF1DC30BD70B500248B
:100120002546002801DA01244042002901DA012590
:100130004942FFF7DDFFAC4200D04042002C00D026
:10014000494270BD03460B439B0703D009E008C931
:10015000121F08C0042AFAD203E00B780370401C77
:10016000491C521EF9D27047D2B201E00270401C05
:10017000491EFBD270470022F6E710B513460A4627
:1001800004461946FFF7F0FF204610BDCAB2401ED4
:100190004178401C8A4202D00029F9D100207047E2
:1001A00030B504460020034600E05B1C934203D2B6
:1001B000E05CCD5C401BF8D030BD30B5054600207A
:1001C000034600E05B1C934205D2EC5CC85C201A3D
:1001D00001D1002CF6D130BD70B5104D002800D1F2
:1001E0002868002414E00A4602E09E4203D0521C14
:1001F0001378002BF9D1DAB2224307D0002B06D0B6
:10020000002C04D000210170401C04E00446401C76
:100210000678002EE7D12860204670BD2800002017
:10022000064C0125064E05E0E36807CC2B430C3C49
:1002300098471034B442F7D3FFF746FF843E0008D6
:10024000A43E000810B5144800788007800F0128EC
:1002500020D1114800780007800F01281AD10E48DC
:100260000078800880000C490870084600780C214E
:1002700088430949087009A10948FFF7ADFF0949FA
:100280000860222107480068FFF780FF06490860E0
:1002900002F03AFA10BD00000A0000202C00000015
:1002A000D0010020100000201400002010B50248EA
:1002B00000F0FAF810BD00001801002010B5024847
:1002C00000F0F2F810BD00007401002070B5044683
:1002D000206C800880000949401860642178084635
:1002E00008381421FFF704FF054604488030A06455
:1002F000E906C90E01208840E06470BD0008024094
:1003000002799106890E4A1E9200064BD2180265A8
:10031000044A403242654A1E93079B0F01229A40CD
:10032000826570470009024070B5856CC46C6C60D2
:10033000046D002C02D0456D846D6C600C4C6468BB
:100340001C26056C35400126AE403443084D6C60D8
:10035000046863608468102C04D10468A260046897
:10036000E16003E00468A1600468E26070BD000021
:100370000000024072B600BFFEE7000001460029FF
:1003800001D1012070472520405C022808D00420BC
:10039000C86300BF00222420425400BF0120F1E7BF
:1003A000086800680E2290430A681060486C006874
:1003B000FF22013290434A6C1060086800684008D0
:1003C00040000A681060124840681C230A6C1A40FA
:1003D0000123934018430E4A50608A6CC86C5060E9
:1003E000086D002809D0086D0068FF220132904393
:1003F0000A6D10604A6D886D5060012225204254BC
:1004000000BF00222420425400BF0020BAE70000B1
:100410000000024070B5044600252520005D02283A
:1004200003D00420E06301253AE0206800680E2133
:1004300088432168086020680068400840002168FF
:100440000860606C0068FF2101318843616C0860BE
:10045000144840681C22216C114001228A4010433C
:1004600010494860A16CE06C4860206D002809D0FC
:10047000206D0068FF2101318843216D0860616DA6
:10048000A06D486001212520015500BF00212420D6
:10049000015500BFA06B002802D02046A16B884701
:1004A000284670BD0000024070B504464548056806
:1004B000206806681C20216C0140042088402840E8
:1004C000002820D00420304000281CD0206800687C
:1004D00020210840002805D12068006804218843B5
:1004E00021680860374840681C22216C11400422B2
:1004F0008A40104333494860206B002860D0204672
:10050000216B88475CE01C20216C01400220884060
:100510002840002828D002203040002824D020681D
:10052000006820210840002808D1206800680A21BE
:100530008843216808600121252001552148416830
:100540001C22206C10400222824011431D48416051
:1005500000BF00212420015500BFE06A00282FD0F1
:100560002046E16A88472BE01C20216C01400820CE
:1005700088402840002823D00820304000281FD081
:10058000206800680E218843216808600D48416892
:100590001C22206C10400122824011430948416016
:1005A0000120E06301212520015500BF0021242006
:1005B000015500BF606B002802D02046616B884760
:1005C00070BD00000000024010B50446002C01D1AF
:1005D000012010BD2A4A2168881A1421FFF788FDDE
:1005E00080002064022125200155206800682549EB
:1005F000084021680860E168A06808432169084351
:1006000061690843A1690843E1690843216A084315
:10061000216809680843216808602046FFF756FEF4
:1006200001218903A068884201D1002060602079FF
:100630008006800E616C0860A16CE06C48606068A8
:1006400000280CD06068042809D82046FFF758FE1F
:100650000020216D0860616DA06D486003E00020FE
:1006600020656065A0650020E0630121252001551B
:1006700000BF00212420015500BF0020A9E7000091
:10068000080002400F80FFFFF8B504460D461646ED
:100690001F460020009000BF2420005D012801D1EA
:1006A0000220F8BD01212420015500BF2520005D56
:1006B000012844D10221252001550020E063206853
:1006C000006840084000216808603B4632462946E1
:1006D0002046FFF729FE206B002806D0206800681E
:1006E0000E210843216808600BE02068006804219F
:1006F000884321680860206800680A21084321684F
:100700000860606C0068012109040840002805D0D9
:10071000606C006809120843616C0860206D002855
:1007200006D0206D0068FF2101310843216D08606B
:1007300020680068012108432168086008E08020E3
:10074000E06300BF00212420015500BF012000907C
:100750000098A6E770B5044600F00EF90646254657
:10076000681C002802D0054800782D1800BF00F052
:1007700003F9801BA842FAD370BD000020000020BE
:1007800070B503460A460021D7E001268E40146862
:100790003440002C73D01579AD07AD0F012D04D076
:1007A0001579AD07AD0F022D18D198684E000325BD
:1007B000B5400646AE4330464E00D568B5402843A6
:1007C0009860586801258D400646AE433046102695
:1007D000556835402D098D40284358601579AD077F
:1007E000AD0F032D0BD0D8684E000325B54006464B
:1007F000AE4330464E009568B5402843D860157921
:10080000AD07AD0F022D15D1CD08AE001D46203528
:10081000A8594D07EE0E0F25B5400646AE433046AB
:100820004E07F60E1569B5402843CD08AD001E46AB
:100830002036705118684E000325B5400646AE4379
:1008400030461579AD07AD0F4E00B540284318600E
:100850000326360455683540002D6DD03A4D8E087C
:10086000B600A8598D07EE0E0F25B5400646AE43DB
:10087000304605252D07AB4202D1002510E05BE094
:10088000324DAB4201D101250AE0314DAB4201D1DD
:10089000022505E02F4DAB4201D1032500E00525DF
:1008A0008E07F60EB5402843274D8E08B600A85196
:1008B000254D603D28680546A54328460126360596
:1008C00055683540002D02D00546254328461E4D6B
:1008D000603D286068680546A543284601267605E0
:1008E00055683540002D02D0054625432846164D53
:1008F000603D6860144D203568680546A54328466C
:100900000126760455683540002D02D00546254362
:1009100028460D4D2035686028680546A5432846C1
:100920000126360455683540002D02D00546254382
:100930002846054D20352860491C1568CD40002DFE
:1009400000D022E770BD0000601802400004005093
:1009500000080050000C0050024613690B40002BA9
:1009600001D0012000E000207047002A01D0816101
:1009700000E0816270470000014800687047000095
:10098000180000200348006803490978401801490D
:1009900008607047180000202000002010B50024D7
:1009A00008480068FF21013108430649086000201B
:1009B00000F00AF8002801D0012401E000F034F82A
:1009C000204610BD00200240F8B50446002513481B
:1009D000007800281ED0114801787D20C000FFF764
:1009E00087FB074639460E480068FFF781FB06463D
:1009F00000F0C4FD00280BD1042C07D200222146B0
:100A0000401E00F045F80748046004E0012502E0BC
:100A1000012500E001252846F8BD00002000002047
:100A2000240000201C00002008B500BF0E4800680C
:100A3000012108430C49086008460068C007C00F40
:100A4000009000BF00BF00BF07484038C06B890559
:100A5000084305494039C8630846C06B090408408B
:100A6000009000BF00BF08BD4010024001460029B1
:100A700009DB00BF00BFCB06DB0E01229A40034B0F
:100A80001A6000BF00BF00BF7047000000E100E037
:100A900070B504460D4616462946204603F058F820
:100AA00070BD000070B5044611480068032149027A
:100AB000884320430E4908604815844216D10D49E9
:100AC00009680622514308460B49FFF711FB451CF4
:100AD00005E0002D01D06D1E01E0032070BD04482B
:100AE00040690121890208408842F2D00020F5E7E0
:100AF000007000402400002040420F00FEB5044674
:100B00000027002002900121490420680840884203
:100B10007BD1002001907048C06BC90208400028BA
:100B20000ED100BF6C48C06B08436B49C8630846D0
:100B3000C06B09040840009000BF00BF0120019075
:100B400066480068FF210131084364490860FFF7E7
:100B500013FF064606E0FFF70FFF801B022801D9AE
:100B6000032706E05D480068FF21013108400028A6
:100B7000F1D000BF002F4BD157484030C569032149
:100B800009020D40002D1AD06069A84217D05248C2
:100B90004030C069884305464F484030C069012154
:100BA000090408434C494031C8610846C069012125
:100BB0000904884348494031C8610846C561E807CF
:100BC000C00F002813D0FFF7D7FE064607E0FFF757
:100BD000D3FE801B4249884201D9032706E03E48E4
:100BE0004030C069022108400028F0D000BF002F2B
:100BF0000CD139484030C06903210902884361693A
:100C0000084335494031C86103E00DE0029700E038
:100C100002970198012806D12F48C06B01210907CE
:100C200088432D49C86300BF2078C007C00F002843
:100C300009D0294840304069800880006168084335
:100C400025494031486120212068084020280AD1E8
:100C5000214840304069032109038843A1680843C3
:100C60001D494031486101218903206808408842BC
:100C700013D1194840304069800080082169084339
:100C800015494031486109062069884205D112485A
:100C9000C068891308431049C8600121C90220684F
:100CA0000840884215D10C4840304069032189032F
:100CB0008843E168084308494031486101218903BC
:100CC000E068884205D10448C068890008430249A9
:100CD000C8600298FEBD0000001002400070004095
:100CE0008813000070B504460D46002C01D1012088
:100CF00070BD6B4800684007400FA84218D2684892
:100D00000068C008C000284365490860FFF734FE4A
:100D1000064607E0FFF730FE801B6249884201D992
:100D20000320E5E75E4800684007400FA842F1D184
:100D3000022120680840022815D1042120680840BB
:100D4000042807D1584880680721090388434018C0
:100D500055498860544880680F2109028843A1687A
:100D60000843514988602078C007C00F002854D03C
:100D70006068012808D14C480068012149040840F6
:100D800000282ED10120B3E76068022808D1464828
:100D90000068012149060840002822D10120A7E768
:100DA0006068002808D14048006801218902084095
:100DB000002816D101209BE76068032808D13A4833
:100DC0004030006A0221084000280AD101208FE744
:100DD00035484030C06902210840002801D1012077
:100DE00086E731488068C008C000616808432E4922
:100DF0008860FFF7C1FD064607E0FFF7BDFD801BD9
:100E00002849884201D9032072E7274880683821A1
:100E100008406168C9008842EFD121480068400756
:100E2000400FA84218D91E480068C008C0002843D7
:100E30001B490860FFF7A0FD064607E0FFF79CFD91
:100E4000801B1849884201D9032051E714480068E3
:100E50004007400FA842F1D104212068084004282F
:100E600008D111488068072109038843E1680843D5
:100E70000D49886000F03AF80B4989680F22120288
:100E80001140090A8900094A515CC906C90EC840C7
:100E90000749086007480068FFF796FD28E700004B
:100EA000002002408813000000100240243E000889
:100EB000240000201C00002001480068704700004A
:100EC0002400002000B5FFF7F7FF064989680722D4
:100ED00012031140090B8900034A515CC906C90E6F
:100EE000C84000BD00100240643E0008FEB5354811
:100EF00080683821084000280DD132480068090276
:100F00000840C10A0120884000902F480099FFF74F
:100F1000EFF8044654E02B48806838210840082840
:100F200001D12A4C4CE0274880683821084010281D
:100F300034D12448C0688607B60F2248C0687021A3
:100F400008400009401C0190022E0FD0032E0CD146
:100F50001E480199FFF7CCF81A49C9687F2212028E
:100F60001140090A484305460DE000BF16480199A3
:100F7000FFF7BEF81349C9687F2212021140090A1F
:100F80004843054600BF00BF0E48C068400F471CDD
:100F900039462846FFF7ACF8044611E00948806856
:100FA00038210840202801D1840209E005488068E2
:100FB00038210840182802D17D24240200E00024B2
:100FC0002046FEBD001002400024F40000127A000A
:100FD000FEB50446002C01D10120FEBD2078C007DB
:100FE000C00F00286FD0F748876838210F40C068CD
:100FF0008607B60F102F01D1032E01D0082F0BD179
:10100000F048006801214904084000285BD060686E
:10101000002858D10120E0E700BF012109046068E1
:10102000884205D1E74800680843E649086021E0A6
:1010300005210904606888420ED1E2480068012158
:1010400089040843DF490860084600680121090453
:101050000843DC4908600DE0DA4800680121090412
:101060008843D849086008460068012189048843FC
:10107000D449086000BF6068002812D0FFF77CFCEC
:10108000054606E0FFF778FC401B642801D90320E1
:10109000A3E7CC4800680121490408400028F1D0AA
:1010A00011E0FFF769FC054606E0FFF765FC401B11
:1010B000642801D9032090E7C2480068012149044F
:1010C00008400028F1D1022120680840022873D18D
:1010D000BC488068382108400746BA48C06886077F
:1010E000B60F102F01D1022E01D0002F36D1B548F6
:1010F0000068012189020840002804D0E068002827
:1011000001D1012069E7AF4840687F210902884387
:10111000616909020843AB494860002F16D10846AF
:1011200000680721C902884321690843A54908606E
:10113000084600680722D2021040C20A01209040EF
:101140000146A148FEF7D4FFA0490860A048006806
:10115000FFF73AFC002849D001203EE7E06800286C
:101160002BD0984800680721C902884321690843A9
:101170009449086008460068891508439149086049
:10118000FFF7FAFB054606E0FFF7F6FB401B0228D7
:1011900001D9032021E78B4800680121890208401A
:1011A0000028F1D0874840687F210902884361699F
:1011B000090208438349486018E082480068FF211B
:1011C000013188437F490860FFF7D6FB054606E0FA
:1011D000FFF7D2FB401B022801D90320FDE6794826
:1011E00000680121890208400028F1D10821206807
:1011F0000840082849D173488068382108401828D9
:101200000BD170484030006A0221084000283CD0D1
:10121000A069002839D10120DFE6A06900281AD092
:1012200068484030006A012108436649403108623D
:10123000FFF7A2FB054606E0FFF79EFB401B0228D6
:1012400001D90320C9E65F484030006A0221084006
:101250000028F1D019E05B484030006A40084000A7
:10126000584940310862FFF787FB054606E0FFF763
:1012700083FB401B022801D90320AEE651484030D1
:10128000006A022108400028F1D1042120680840AA
:1012900004287CD1002001904A4880683821084009
:1012A00020280BD147484030C0690221084000285F
:1012B0006ED0A06800286BD101208EE64148C06B3B
:1012C000010F01208843002810D000BF3D48C06BAB
:1012D0000121090708433B49C8630846C06B09045C
:1012E0000840009000BF00BF01200190394800680D
:1012F000FF2101310840002816D136480068084314
:1013000034490860FFF738FB054606E0FFF734FB79
:10131000401B022801D903205FE62E480068FF2108
:10132000013108400028F1D000BFA068012808D191
:1013300024484030C0690121084322494031C86136
:1013400020E0A06805280FD11E484030C069042164
:1013500008431C494031C8610846C069012108435F
:1013600018494031C8610DE016484030C069410855
:10137000490014484030C161C069042188431149C3
:101380004031C86100BFA068002816D001E040E0ED
:101390003EE0FFF7F1FA054607E0FFF7EDFA401BE4
:1013A0000D49884201D9032017E606484030C0693C
:1013B000022108400028F0D01EE0FFF7DDFA0546C4
:1013C00014E00000001002400024F400240000207B
:1013D0001C0000200070004088130000FFF7CCFACA
:1013E000401B6249884201D90320F6E56048C06984
:1013F000022108400028F1D10198012808D15C4859
:101400004038C06B01210907884359494039C863F6
:1014100000BFE06900285AD055484038806838211C
:10142000084010287AD0E069022851D1504840384D
:1014300000680121090688434D4940390860FFF7DB
:101440009BFA054606E0FFF797FA401B022801D9F0
:101450000320C2E54648403800680121490608409B
:101460000028F0D1616A206A0843A16A0902084392
:10147000E16A0843216B08433D494039C9683D4A48
:10148000114008433A494039C860084600680121C4
:10149000090608433649403908600846C06809040F
:1014A000084333494039C860FFF766FA054606E04D
:1014B000FFF762FA401B022801D903208DE52C4872
:1014C000403800680121490608400028F0D04AE071
:1014D00027484038006801210906884324494039DB
:1014E0000860FFF749FA054606E0FFF745FA401B9A
:1014F000022801D9032070E51D4840380068012109
:10150000490608400028F0D119484038C0681A49F7
:10151000084017494039C86025E0FFE7E069012825
:1015200000D15AE512484038C668B107890F206AD1
:10153000814216D170203040616A884211D17F20EB
:1015400000023040A16A090288420AD11F204004EB
:101550003040E16A884204D1710F4907206B814213
:1015600001D0012039E5002037E500008813000094
:10157000401002408C80C11FFCFFFEEF70B5044696
:101580002546681E0949884201D901200CE0681EE1
:10159000074948610321081F02F0DAFA00200449D4
:1015A000886107200861002070BD0000FFFFFF0078
:1015B00000E000E070477047704710B50446002C0B
:1015C00001D1012010BD3D20005D002805D1002182
:1015D0003C200155204600F027F802213D2001550E
:1015E000211D206801F0F6FC01214820015500BFB3
:1015F0003E2001553F200155402001554120015515
:10160000422001554320015500BF00BF4420015531
:1016100045200155462001554720015500BF3D207A
:1016200001550020CEE7000038B504460D4920687A
:10163000884216D100BF0C480068C91308430A4904
:101640000860084600680121C9030840009000BFF7
:1016500000BF002211461320FFF71AFA1320FFF7EC
:1016600005FA38BD002000404010024001463D20F0
:10167000405C012801D00120704702233D204354E3
:101680000868C068012318430B68D8600F4B0868CE
:10169000984203D00E4B086898420FD108688268C0
:1016A0000C4B1A40062A0FD0D81F82420CD0086873
:1016B0000068012318430B68186005E0086800689B
:1016C000012318430B6818600020D5E7002C014067
:1016D00000040040070001007047000010B50446F8
:1016E0002068006902210840400800281CD02068BA
:1016F000C06808404008002816D0481F21680861CB
:1017000001202077206880698007800F002803D09F
:101710002046FFF7E1FF05E0204600F0DBF8204619
:1017200000F0D9F8002020772068006904210840E3
:10173000800800281DD02068C06808408008002864
:1017400017D0C8432168086102202077206880698B
:10175000032109020840002803D02046FFF7BCFF00
:1017600005E0204600F0B6F8204600F0B4F800206E
:1017700020772068006908210840C00800281CD094
:101780002068C0680840C008002816D0C8432168F7
:101790000861042020772068C0698007800F002836
:1017A00003D02046FFF798FF05E0204600F092F8AE
:1017B000204600F090F80020207720680069102172
:1017C0000840000900281DD02068C06808400009B2
:1017D000002817D0C84321680861082020772068B6
:1017E000C069032109020840002803D02046FFF702
:1017F00073FF05E0204600F06DF8204600F06BF81E
:101800000020207720680069C007C00F01214840F0
:10181000484000280CD02068C06808404840484034
:10182000002805D0C81E21680861204600F054F841
:101830002068006980210840C00900280BD020687A
:10184000C0680840C009002805D0C8432168086165
:101850002046FFF7B0FE20680069FF2101310840F3
:10186000000A00280CD02068C06880210840C00908
:10187000002805D01648216808612046FFF79AFE27
:101880002068006940210840800900280BD02068AA
:10189000C06808408009002805D0C8432168086155
:1018A000204600F03DF820680069202108404009EA
:1018B00000280BD02068C06808404009002805D0E7
:1018C000C843216808612046FFF776FE10BD00007E
:1018D000FFFEFFFF7047704710B504460E492068B1
:1018E000884218D10D484068401C0C4948600121CD
:1018F00005200007FFF730F8002806D1002210214C
:1019000005200007FFF731F805E00122102105202E
:101910000007FFF72AF810BD002000402C0000202F
:101920007047014600BF8020405C012801D10220A1
:10193000704701238020435400BF24238420435058
:101940000868026808680068400840000B68186072
:1019500001235B071046984302460020486608684A
:10196000026020238420435000BF00238020435482
:1019700000BF0020DCE77047704770B504460D4695
:1019800000BF8020005D012801D1022070BD01212F
:101990008020015500BF2421842001512068066861
:1019A000206800684008400021680860206880685E
:1019B000072149068843284321688860204601F0B2
:1019C00051FB2068066020218420015100BF0021C6
:1019D0008020015500BF0020D8E770B504460D46B1
:1019E00000BF8020005D012801D1022070BD0121CF
:1019F0008020015500BF2421842001512068066801
:101A000020680068400840002168086020688068FD
:101A1000C000C008284321688860204601F022FBEE
:101A20002068066020218420015100BF0021802011
:101A3000015500BF0020D9E770477047704700008C
:101A4000F0B585B004462068C5692068066820683E
:101A50008768FB48284003900398002814D1202071
:101A60002840002810D020203040002804D1012038
:101A700000073840002807D0206F002802D02046F9
:101A8000216F884705B0F0BD039800287ED0ED484F
:101A90003840002803D1EC4830400028F6D0E80751
:101AA000C00F00280DD0FF2001303040002808D0A2
:101AB0000120216808628C200059012108438C21F3
:101AC00008510220284000280CD0F807C00F002839
:101AD00008D00220216808628C20005904210843A4
:101AE0008C2108510420284000280CD0F807C00F92
:101AF000002808D00420216808628C2000590221A7
:101B000008438C21085108202840002810D02020AC
:101B10003040002803D1CB483840002808D00820A6
:101B2000216808628C200059082108438C21085143
:101B30000120C002284000280ED00120800630403D
:101B4000002809D00120C002216808628C200059B9
:101B5000202108438C2108518C200059002859D09D
:101B60002020284000280ED020203040002804D11A
:101B7000012000073840002805D0206F002802D03F
:101B80002046216F88478C20005900E043E00290F6
:101B90002068806840210840402804D0282102980D
:101BA0000840002830D0204601F0F2FC2068806810
:101BB00040210840402823D100BF02F005F80190E1
:101BC000012002F013F820688068402188432168D2
:101BD0008860019802F00AF800BFE06F00280BD07F
:101BE0009A48E16F8863E06FFEF714FC002811D07B
:101BF000E06F816B88470DE02046FFF71FFF09E08B
:101C00002046FFF71BFF05E02046FFF717FF0021E6
:101C10008C20015136E7E06E01287CD1102028404D
:101C2000002878D0102030400028FAD010202168F9
:101C300008622068806840210840402871D1E06F28
:101C40000068406880B201900198002868D05C204C
:101C5000015B0198814263DD5E2101980853E06FCA
:101C6000006800682021084000284CD100BF01F026
:101C7000ABFF0090012001F0B9FF20680068FF2150
:101C80000131884321680860009801F0AFFF00BF70
:101C900000BF01F099FF0090012001F0A7FF20682C
:101CA00080684008400021688860009801F09EFF2D
:101CB00000BF00BF01F088FF0090012001F096FFF7
:101CC000206880684021884321688860009801F07E
:101CD0008DFF00BF2021882001510020E06600BF59
:101CE00001F072FF0090012001F080FF2068006881
:101CF0001021884321680860009801F077FF00BF39
:101D0000E06FFEF73BFB5C20025B5E20005B101A7D
:101D100081B2204602E052E003E001E0FFF72BFE33
:101D2000B0E65C20015B5E20005B081A80B2019087
:101D30005E20005B002841D0019800283ED000BF03
:101D400001F042FF0090012001F050FF2068006880
:101D5000FF212131884321680860009801F046FF87
:101D600000BF00BF01F030FF0090012001F03EFFF6
:101D7000206880683349C94308402168886000981A
:101D800001F034FF00BF2021882001510020E066CF
:101D9000206700BF01F018FF0090012001F026FF2E
:101DA000206800681021884321680860009801F0CD
:101DB0001DFF00BF20460199FFF7DDFD62E601200F
:101DC0000005284000280CD001208005384000285C
:101DD00007D001200005216808622046FFF72DFE8C
:101DE00050E68020284000280FD080203040002876
:101DF00004D10120C0053840002806D0606F0028BB
:101E000002D02046616F88473CE6402028400028E9
:101E100007D040203040002803D0204601F0FAFBD4
:101E200030E60120C0052840002811D0012080079D
:101E3000304000280CD02046FFF7FEFD22E60000CF
:101E40000F0800000100001020010004C133000849
:101E5000012000062840002807D0F00FC007002806
:101E600003D02046FFF788FD0CE600BF0AE610B558
:101E70000446002C01D1012010BDA069002800D02B
:101E800000E000BF84200059002805D100218020F7
:101E90000155204600F02CF82421842001512068AF
:101EA00000684008400021680860204601F0F8FB07
:101EB000012800D1E0E7A06A002802D0204601F006
:101EC000CAF9206840680921C9028843216848602E
:101ED000206880682A21884321688860206800681B
:101EE0000121084321680860204601F02DFAC3E76C
:101EF00010B58CB00446142107A8FEF73CF9182150
:101F000001A8FEF738F93E492068884276D10120C1
:101F100001900020029001A8FEF7F0FD002801D0FA
:101F2000FEF728FA00BF37480068012189030843FB
:101F30003449086008460068012189030840009080
:101F400000BF00BF00BF2F484038406B022108434C
:101F50002C49403948630846406B022108400090F4
:101F600000BF00BFC0200790022008900020099009
:101F70000A900B9007A92448FEF702FC2348244945
:101F8000086032204860002121488160C1608021C2
:101F90000161002141618161C1610162FEF714FBB1
:101FA000002801D0FEF7E6F900BF1948E067846217
:101FB00000BF1648143017490860332048601021CC
:101FC000144881600021C1608021016100214161CC
:101FD0008161C1610162FEF7F7FA002801D0FEF7C6
:101FE000C9F900BF0B48A067846200BF00221146F8
:101FF0001B20FEF74DFD1B20FEF738FD0CB010BD79
:102000000038014040100240000400500800024027
:102010001801002074010020F8B504460D4616464C
:102020008820005920283ED1002D01D0002E01D15A
:102030000120F8BD01210903A068884208D1206968
:10204000002805D1E807C00F002801D00120F0E7E3
:1020500000BF8020005D012801D10220E9E70121B5
:102060008020015500BF0020E06620684068C90557
:102070000840002811D000BF01F0A6FD074601204E
:1020800001F0B4FD20680068012189060843216839
:102090000860384601F0AAFD00BF324629462046B6
:1020A00001F0F0FBC5E70220C3E7000010B50446CD
:1020B000054920684018002803D1044801F053F86E
:1020C00000BF00BF10BD000000C8FEBFA00200207E
:1020D00070470000F8B504460E46154684200059A6
:1020E00020286AD1002E01D0002D01D10120F8BD99
:1020F00001210903A068884208D12069002805D180
:10210000F007C00F002801D00120F0E700BF8020B9
:10211000005D012801D10220E9E70121802001555D
:1021200000BF2665542005535620055300218C20FE
:102130000151212184200151A06F002822D0204884
:10214000A16FC8621F48A16F08631F48A16F486351
:102150000020A16F886323681A4628322B46216D20
:10216000A06FFEF791FA00280CD010218C200151AD
:1021700000BF00218020015500BF20218420015193
:102180000120B4E740202168086200BF00218020C0
:10219000015500BF00BF01F017FD0746012001F007
:1021A00025FD2068806880210843216888603846C2
:1021B00001F01CFD00BF002099E7022097E7000016
:1021C0001D35000881350008D933000810B50446D4
:1021D000054920684018002803D1044801F02EF872
:1021E00000BF00BF10BD000000C8FEBFA00200205D
:1021F000704700BFFEE770B50446A06900281AD0FA
:102200002046A16988470546002D13DD1C20205E6D
:10221000A84201DA1C25655F2946204600F0FCFC37
:10222000A08B401B00B2A083E088002802D120468A
:1022300000F03AF800BF204600F0B4FB70BD014644
:102240004869704770B504460D46A07B8007C00FF3
:10225000002801D1062070BD1C20205EA84201DAB2
:102260001C25655FA07B02218843A0732946204678
:1022700000F0D2FC061E01D03046ECE7204600F00C
:1022800013F8E8E701461C20085E7047F8B50446DD
:102290000D4616461F463A463146204600F068FC79
:1022A000256100206061F8BD70B50446A07B800701
:1022B000C00F00281DD1204600F0AAFB0546A583CB
:1022C000002D14DD206900280FD0A07B0221884357
:1022D000801CA073204600F045FC06462A46314685
:1022E000204623699847002070BD0420FCE70120A8
:1022F000FAE70820F8E74161704781617047000004
:1023000008B500BF0E48806B012108430C49886363
:102310000846806BC007C00F009000BF00BF0022BE
:1023200011460920FEF7B4FB0920FEF79FFB0022AF
:1023300011460A20FEF7ACFB0A20FEF797FB08BD0A
:102340000010024000B587B0142102A8FDF713FF6A
:1023500000BF1D48406B022108431B4948630846E3
:10236000406B02210840019000BF00BF00BF16482B
:10237000406B01210843144948630846406BC0077D
:10238000C00F019000BF00BF0022122105200007EE
:10239000FEF7EBFA01200290002003900120049048
:1023A00002A905200007FEF7EBF912200290012098
:1023B000039000200490059002A905200007FEF775
:1023C000DFF907B000BD00000010024010B50A4858
:1023D0000A4908603F204860002108488160084998
:1023E000C160002101618161FFF7E7F8002801D099
:1023F000FDF7C0FF10BD0000002000403C000020A1
:10240000E703000010B51A481A4908604B20C001C4
:102410004860002117488160C16001610C21416161
:1024200000218161C161016241620020114988621D
:102430000846FFF71CFD002801D0FDF79BFF002197
:102440000C48FFF7CAFA002801D0FDF793FF0021DE
:102450000848FFF792FA002801D0FDF78BFF0548E6
:10246000FFF75FFA002801D0FDF784FF10BD0000E0
:10247000003801408800002000BFFEE770B5044628
:10248000A07B4007C00F00281DD1204600F0ADFA08
:102490000546A583002D14DD206900280FD0A07B00
:1024A00004218843001DA073204600F035FB06463A
:1024B0002A463146204623699847002070BD0520F2
:1024C000FCE70220FAE70920F8E70146486970476F
:1024D00070B504460D46A07B4007C00F002801D10F
:1024E000072070BD1C20205EA84201DA1C25655F14
:1024F000A07B04218843A0732946204600F06BFB93
:10250000061E01D03046ECE72046FFF7B7FFE8E7AC
:10251000F8B504460D4616461F463A463146204653
:1025200000F026FB256100206061A061F8BD014636
:102530001C20085E704741617047704710B5044623
:102540000422564956A0FDF738FE002809D1564806
:1025500000780C218843001D53490870012053491D
:10256000087006224D4952A0FDF727FE002809D128
:102570004D48007880088000401C4B4908700220BC
:102580004A490870062245494BA0FDF716FE00286F
:1025900009D14548007830218843103042490870FD
:1025A00003204249087007223C4945A0FDF705FE7B
:1025B00006223A4945A0FDF700FE002809D1052072
:1025C0003A49087038484078C0218843403036493D
:1025D0004870022231493FA0FDF7EFFD002809D1E4
:1025E000314840783021884310302F494870062008
:1025F0002E4908700422294937A0FDF7DEFD002886
:1026000002D10C20294908700622244934A0FDF784
:10261000D4FD002802D10B202449087001221F4953
:1026200031A0FDF7CAFD002802D10D201F49087016
:1026300006221A492DA0FDF7C0FD002809D11A482D
:1026400080780C218843001D1749887004201749A1
:1026500008700522114927A0FDF7AFFD002809D118
:102660001148807880088000401C0F49887008203D
:102670000E4908700622094920A0FDF79EFD00289A
:1026800009D1094880783021884310300649887084
:102690000920064908700548007810BDD0010020C7
:1026A00052494E47000000000A00002009000020A7
:1026B0002B434C49503A00002B44544D463A0000FD
:1026C0004E4F204341525249455200002B434C4348
:1026D000433A00004F4B00004552524F5200000059
:1026E0002B434D47533A00003E0000002B434D540E
:1026F000493A00002B434D543A0000002B434D470C
:10270000523A00007047000010B506A001F0DEFA52
:10271000062204A1054800F072FB0448FFF7AEFE54
:10272000002010BD4154410D0A000000CC020020E1
:1027300010B50024230001F0FDF90B077E8C979F54
:10274000A7AFB7BFC7CFDF000C226DA16F4800F065
:1027500056FB6E48FFF792FEC820FDF7FBFF0722ED
:102760006BA16A4800F04BFB6848FFF787FEC82062
:10277000FDF7F0FF052268A1644800F040FB6348C4
:10278000FFF77CFEC820FDF7E5FF0C2264A15F483F
:1027900000F035FB5D48FFF771FEC820FDF7DAFF5A
:1027A0000C2262A1594800F02AFB5848FFF766FE48
:1027B000C820FDF7CFFF0C225FA1544800F01FFB9B
:1027C0005248FFF75BFEC820FDF7C4FF15225DA14C
:1027D0004E4800F014FB4D48FFF750FEC820FDF7AF
:1027E000B9FF0C225DA1494800F009FB4748FFF7FB
:1027F00045FEC820FDF7AEFF0C225BA1434800F068
:10280000FEFA4248FFF73AFEC820FDF7A3FF152263
:1028100058A13E4800F0F3FA3C48FFF72FFEC820CD
:10282000FDF798FF01245948007902218843801C54
:102830005649087160E002245448C07880218843DA
:102840005249C87008460079042188434F490871ED
:1028500052E031A001F03AFA03244C48C0788021BC
:1028600088434A49C87047E004244848C07880211A
:1028700088434649C8703FE005244448C078802119
:1028800088434249C87037E006244048C078802118
:1028900088433E49C8702FE007243C48C078802117
:1028A00088433A49C87027E008243848C078802116
:1028B00088433649C8701FE009243448C078802115
:1028C00088433249C87017E00A243048C078802114
:1028D00088432E49C87000BF14222DA10B4800F078
:1028E0008EFA0A48FFF7CAFDFF242848C0788021E5
:1028F00088432649C87000BF00BFFF2010BD0000FC
:1029000041542B434D47463D310D0A00CC02002077
:10291000415445300D0A000041540D0A00000000EA
:1029200041542B434C49503D310D0A0041542B4337
:1029300046554E3D310D0A0041542B434C43433D17
:10294000310D0A0041542B43534D503D31372C314A
:1029500036372C302C300D0A0000000041542B4338
:102960005245473D300D0A0041542B444445543DE7
:10297000310D0A0041542B434D4744413D2244450B
:102980004C20414C4C220D0A0000000004000020A5
:1029900041542B434D4744413D2244454C414C4C0E
:1029A000220D0A0000B503460C20185E002802DB49
:1029B0000C20185E00BD184600F001F8FAE7014649
:1029C000887BC007C00F002808D00420085E0822BA
:1029D0008A5E801A06228A5E801804E00620085E5D
:1029E00008228A5E801A00B270470146887BC007C1
:1029F000C00F002805D00420085E08228A5E801AD5
:102A000004E00620085E08228A5E801A00B2704741
:102A10000146887BC007C00F002805D00820085E4B
:102A200006228A5E801A04E00420085E06228A5E7E
:102A3000801A00B27047FFB581B004460D461E46AD
:102A40002046FFF7AFFF401BB04202DA022005B07C
:102A5000F0BD0421615E0822A25E5019FDF75EFB05
:102A60000DB2A8190421615E884214DBA088401BC6
:102A700007B2F01B06B2206841193A460398FDF7E9
:102A800061FB0398C01903900421615EE819FDF70A
:102A900045FB0DB200BF2068411932460398FDF78F
:102AA00051FB0020D3E7FFB581B004460D461E461A
:102AB0002046FFF777FF401BB04202DA022005B044
:102AC000F0BD0421615E0822A25E5019FDF726FBCD
:102AD0000DB2A8190421615E884215DBA088401B55
:102AE00007B2F01B06B2AA19206881183A4603986B
:102AF00001F0DEF80398C01903900421615EE81923
:102B0000FDF70CFB0DB200BF206841193246039857
:102B100001F0CEF80020D2E7014608228A5E08685C
:102B2000801870471CB50C4800780F2811D10BA0F5
:102B3000006801900A4800900222694601A8FDF74A
:102B40002FFB002801D1012000E00020024908707D
:102B500000BF014800781CBD00000020AABB000097
:102B6000BBAA0000014606228A5E086880187047EA
:102B7000F8B504460D4616462560A680A07B4008A1
:102B80004000A073A07B02218843A073A07B042196
:102B90008843A073FFF7C6FFC0000821084007461E
:102BA000A07B88433843A073A07B10218843A07387
:102BB00000202081E080401E6081A081F8BD014698
:102BC0000C20085EC017401C704701460A20085EB2
:102BD000C017401C704770B504460D462046FFF7ED
:102BE000E1FEA84201DA022070BD2089401900B23E
:102BF00020810820205E0421615E88420ADB0421D6
:102C0000615E0820205EFDF789FA2181A07B4008E3
:102C10004000A0730020E7E770B504460D4620464B
:102C200000F0CAF8A84201DA012070BDE08840191E
:102C300000B2E0800620205E0421615E88420BDB4A
:102C40000421615E0620205EFDF768FAE180A07B2A
:102C500040084000401CA0730020E6E7F8B5044699
:102C60000F4615462046FFF79DFEA84201DA0220D6
:102C7000F8BD2046FFF7A3FF002803D0A089401B22
:102C800000B2A0810820205E40190421615E8842C4
:102C90001CDBA0882189401A06B2A81B05B20822B5
:102CA000A25E2068811832463846FDF74BFABF19FC
:102CB0000421615E0822A25E9019FDF72FFA08B286
:102CC0002081A07B40084000A07300BF002D10DDD4
:102CD0000822A25E206881182A463846FDF732FA9B
:102CE0000421615E0822A25E5019FDF717FA08B2AE
:102CF00020810020BCE7F8B504460E461546204664
:102D0000FFF750FEA84201DA0220F8BD2046FFF787
:102D100056FF002803D0A089401B00B2A0810820E4
:102D2000205E40190421615E88421BDBA088218956
:102D3000401A07B2E81B05B20823E35E2268D118E7
:102D400070193A4600F0B4FF0421615E0822A25EC9
:102D5000D019FDF7E3F908B22081A07B40084000BC
:102D6000A07300BF002D10DD0822A25E206881182C
:102D70002A46304600F09CFF0421615E0822A25ED4
:102D80005019FDF7CBF908B220810020BDE7000003
:102D900038B5044600210091A07BC006C00F80001A
:102DA00004490B5801226946204698476846007836
:102DB00038BD0000D83D000800B503460A20185E63
:102DC000002802DB0A20185E00BD184600F001F85A
:102DD000FAE70146887BC007C00F002805D008200D
:102DE000085E06228A5E801A07E00420085E06223A
:102DF0008A5E801A08228A5E801800B27047F8B591
:102E000004460F4615462046FFF7D6FFA84201DAD2
:102E10000120F8BD2046FFF7D8FE002803D06089C6
:102E2000401B00B260810620205E40190421615ED3
:102E300088421DDBA088E188401A06B2A81B05B2B3
:102E40000622A25E2168881832463946FDF77AF9D3
:102E5000BF190421615E0622A25E9019FDF75EF99A
:102E600008B2E080A07B40084000401CA07300BF77
:102E7000002D10DD0622A25E216888182A463946F8
:102E8000FDF760F90421615E0622A25E5019FDF78C
:102E900045F908B2E0800020BBE7F8B504460F46CC
:102EA00015462046FFF788FFA84201DA0120F8BD49
:102EB0002046FFF78AFE002803D06089401B00B23D
:102EC00060810620205E40190421615E88421CDB7F
:102ED000A088E188401A06B2A81B05B20623E35E6B
:102EE0002268D0187919324600F0E2FE0421615EB2
:102EF0000622A25E9019FDF711F908B2E080A07BCE
:102F000040084000401CA07300BF002D10DD0622C9
:102F1000A25E216888182A46394600F0C9FE0421BD
:102F2000615E0622A25E5019FDF7F8F808B2E08053
:102F30000020BCE710B5FDF725FD10BD00B591B030
:102F4000342104A8FDF717F90020009001900290A9
:102F5000039001204002FDF7A5FD02200490C0016E
:102F60000790002008904020099002200B90022139
:102F70000C9100210D9108210E9101040F91010780
:102F8000109104A8FEF724F8002801D0FDF7F2F90B
:102F9000072000900220019000200290039002215F
:102FA0006846FDF79FFE002801D0FDF7E3F911B058
:102FB00000BD00000120C006014988607047000084
:102FC00000ED00E010B50248FEF788FB10BD0000E0
:102FD0003C00002010B502681D4B984202D01D4BEA
:102FE000984205D170241346A3431A464B681A43EE
:102FF000174B98420BD0174B984208D0164B98426B
:1030000005D0164B984202D0154B984206D10324A6
:1030100024021346A3431A46CB681A43802413465E
:10302000A3434C6923431A4602608B68C3620B6852
:103030008362074B984205D0084B984202D0084B58
:10304000984201D10B6903630123436110BD000065
:10305000002C0140000400400020004000440140DA
:1030600000480140F8B50446606E002805D10121F2
:103070006A2001536820015322E0082708220092A9
:1030800020688068072149060840450E206880684E
:10309000460F0C4A915D0C4A935D009A53431846C3
:1030A000FDF73CF881B26A200153064A515D064A99
:1030B000525D7A431046FDF731F881B26820015322
:1030C000F8BD0000133E00080B3E000870B5044632
:1030D0002046FFF7B4F805462046FFF7D3F86968A5
:1030E00009684968401A00B270BD0000F8B504468E
:1030F0000D4616461F4625606660A7600E492046AD
:103100000C30079B069AFFF7C1F80C4920460C309B
:10311000FFF7F3F8214620460C30FFF7ECF808499A
:1031200020462C30099B089AFFF7F2F921462046E9
:103130002C30FFF700FAF8BD45310008CD3000080B
:103140001B320008F8B506460F4614463046FFF716
:1031500076F80546284600F013F8A2B239462868EA
:10316000FEF75AFFF8BD70B5044620460C30FFF755
:1031700089F80546294620460C30FFF763F870BDF4
:1031800070B505462C682068806840210840860993
:103190008820005922281CD1002E1AD0206880686F
:1031A000884321688860E06F002802D0E06FFDF757
:1031B000E5F820680068FF21213188432168086014
:1031C00020688068400840002168886020218820AD
:1031D000015170BD70B505462C682068806880215B
:1031E0000840C60984200059212815D1002E13D08B
:1031F00020688068884321688860A06F002802D01A
:10320000A06FFDF7BBF820680068C02188432168E3
:10321000086020218420015170BDF8B506460F4694
:1032200014463046FFF751F905462846FFF7D2FF0E
:10323000A2B239462868FEF74DFFF8BD70B50446C6
:1032400020462C30FFF773F90546294620462C30DE
:10325000FFF73EF970BD018DC907C90F002908D0DD
:1032600001684968012252049143C26A114302680D
:1032700051600222816A1140022907D10168496820
:10328000D2039143026B1143026851600422816AA8
:103290001140042907D10168496812049143426B27
:1032A0001143026851600822816A1140082907D140
:1032B0000168496812039143826B114302685160AF
:1032C0001022816A1140102907D101688968120211
:1032D0009143C26B1143026891602022816A1140C0
:1032E000202907D10168896812029143026C1143B9
:1032F000026891604022816A1140402915D101681D
:10330000496892039143426C114302685160012263
:103310001205416C914208D10168496803225205A7
:103320009143826C1143026851608022816A11408E
:10333000802907D10168496812039143C26C114387
:10334000026851607047000038B5044600218C20A7
:103350000151FDF711FB054620680068082108406F
:1033600008280BD115482B460022890400902046DE
:1033700000F000FB002801D0032038BD2068006861
:103380000421084004280BD10C482B4600220905D3
:103390000090204600F0EEFA002801D00320ECE770
:1033A000202184200151882001510020E06600BFC7
:1033B00000218020015500BF0020DEE7FFFFFF0154
:1033C00070B50546AC6A00215E20015356200153BA
:1033D0002046FEF733FB70BDF8B50546AC6A842085
:1033E0000659882007592068806880210840802875
:1033F00007D1212E05D1002156200153204600F08F
:1034000025F92068806840210840402807D1222FF4
:1034100005D100215E200153204600F0B9F88C2030
:103420000059102108438C2108512046FEF706FB65
:10343000F8BD70B50546AC6A2868006820210840D0
:1034400000284DD100215E20015300BF00F0BCFBDD
:103450000646012000F0CAFB20680068FF21013108
:10346000884321680860304600F0C0FB00BF00BF01
:1034700000F0AAFB0646012000F0B8FB2068806837
:103480004008400021688860304600F0AFFB00BF74
:1034900000BF00F099FB0646012000F0A7FB206862
:1034A00080684021884321688860304600F09EFB98
:1034B00000BF202188200151E06E012810D100BFFB
:1034C00000F082FB0646012000F090FB20680068B7
:1034D0001021884321680860304600F087FB00BF58
:1034E000E06E012805D15C20015B2046FEF743FA1F
:1034F00002E02046FEF7DAFD70BD70B50546AC6A05
:10350000E06E012806D15C20005B41082046FEF7F2
:1035100032FA02E02046FEF7DBFD70BD70B50546CD
:10352000AC6A2868006820210840002824D10021C6
:103530005620015300BF00F047FB0646012000F073
:1035400055FB206880688021884321688860304668
:1035500000F04CFB00BF00BF00F036FB0646012028
:1035600000F044FB2068006840210843216808609F
:10357000304600F03BFB02E02046FEF727FE70BD20
:1035800070B50446A56A2846FEF732FE70BD0000FD
:1035900070B5044600BF00F017FB0546012000F09F
:1035A00025FB20680068FF212131884321680860DD
:1035B000284600F01BFB00BF00BF00F005FB0546DE
:1035C000012000F013FB2068806811490840216841
:1035D0008860284600F00AFB00BFE06E012810D189
:1035E00000BF00F0F1FA0546012000F0FFFA206864
:1035F00000681021884321680860284600F0F6FA28
:1036000000BF2021882001510020E066206770BDA6
:10361000FEFFFFEF70B5044600BF00F0D5FA054687
:10362000012000F0E3FA2068006840218843216807
:103630000860284600F0DAFA00BF202184200151FA
:10364000002060672046FEF7C1FD70BD70B50446DE
:1036500000BF00F0B9FA0546012000F0C7FA206863
:103660000068C021884321680860284600F0BEFA3F
:1036700000BF00BF00F0A8FA0546012000F0B6FA2E
:10368000206880680121C905884321688860284630
:1036900000F0ACFA00BF20218420015170BD000071
:1036A000F0B585B00446002001902169A068084368
:1036B00061690843E169084303902068006869492B
:1036C0000840039908432168086020684068032186
:1036D00009038843E168084321684860A0690390B2
:1036E000206A039908430390206880685E49084077
:1036F00003990843216888602068C06A00090001B6
:10370000616A08432168C86200BF5849206888423E
:1037100017D1574840698007800F002806D001283C
:1037200008D0022804D0032808D105E0002707E0CC
:10373000022705E0042703E0082701E0102700BF67
:1037400006E04C492068884201D1002700E010279C
:1037500000BF0121C903E069884241D1002F06D092
:10376000022F08D0042F08D0082F0DD109E0FDF753
:10377000A9FB05460CE0404D0AE0FDF7B7FB054606
:1037800006E00125ED0303E000250120019000BFC4
:1037900000BF002D5BD0606A4000384A115A2846AD
:1037A000FCF7A6FC40006168490840180090616879
:1037B000FCF79EFC0646102E0FD3314886420CD8EB
:1037C0002F480F38304002903007400F02990843CD
:1037D000029002982168C86039E00120019036E02B
:1037E000002F06D0022F08D0042F08D0082F0DD1AB
:1037F00009E0FDF767FB05460CE01F4D0AE0FDF709
:1038000075FB054606E00125ED0303E000250120D8
:10381000019000BF00BF002D19D0606A4000174A18
:10382000115A2846FCF764FC61684908401800906A
:103830006168FCF75DFC0646102E06D310488642F0
:1038400003D8B0B22168C86001E0012001900121D5
:103850006A200153682001530020206760670198A7
:1038600005B0F0BDF369FFCFFFF4FF110038014050
:1038700040100240004400400024F400EE3D0008E7
:10388000FFFF0000F8B504460E461546A6655C200D
:10389000055300218C200151222188200151E06F25
:1038A000002822D03048E16FC8623048E16F0863D9
:1038B0002F48E16F48630020E16F88632368194651
:1038C00024312B46A26DE06FFCF7DEFE00280CD001
:1038D00010218C20015100BF00218020015500BF24
:1038E0002021882001510120F8BD00BF0021802047
:1038F000015500BF2069002811D000BF00F064F915
:103900000746012000F072F920680068FF210131AC
:10391000084321680860384600F068F900BF00BF1E
:1039200000F052F90746012000F060F92068806835
:103930000121084321688860384600F057F900BF2C
:1039400000BF00F041F90746012000F04FF9206860
:1039500080684021084321688860384600F046F9B5
:1039600000BF0020C0E7000033340008FB3400082B
:10397000D9330008FFB581B004460D4617460A9EAC
:103980007BE0701C002878D0FCF7F6FF0499401A01
:10399000B04201D8002E2FD100BF00F015F90090E1
:1039A000012000F023F920680068FF21A13188433D
:1039B00021680860009800F019F900BF00BF00F00E
:1039C00003F90090012000F011F920688068400898
:1039D000400021688860009800F008F900BF2021AD
:1039E000842001518820015100BF00218020015511
:1039F00000BF032005B0F0BD206800680421084026
:103A000000283AD02068C06949020840C00A00284E
:103A100033D008462168086200BF00F0D5F8009056
:103A2000012000F0E3F820680068FF21A1318843FD
:103A300021680860009800F0D9F800BF00BF00F0CE
:103A4000C3F80090012000F0D1F820688068400899
:103A5000400021688860009800F0C8F800BF20216D
:103A600084200151882001518C20015100BF002188
:103A70008020015500BF0320BCE72068C0692840B2
:103A8000A84201D1012000E00020B84200D178E72F
:103A90000020AFE710B50248FDF7D2FF10BD0000CF
:103AA0008800002010B53BE02048FFF771F920495D
:103AB000C8730846C17B603802790079401CC3B2E4
:103AC0001B486038037160388154C030C07B0A28BD
:103AD00013D100211648603802790079401CC3B226
:103AE0001348603803716038815460300171603868
:103AF000FEF724FD044600F0F5F80D486038007923
:103B00003E280DD100210A48603802790079401C16
:103B1000C3B2074860380371603881546030017166
:103B20000248FEF768FB0028BEDC10BDAC02002096
:103B30009002002030B47446641E2578641CAB42A9
:103B400004D3635D5B00E31830BC18471D46F8E7FB
:103B500010B5002819DB1A4A03231B02D218830868
:103B60009B00D2588307DC0EFF23A3409A438B07A8
:103B70001B0E8407E40EA3401A43114B03242402B6
:103B80001B198408A4001A5118E00E4A03071B0FE2
:103B9000083B9B089B00D2588307DC0EFF23A34001
:103BA0009A438B071B0E8407E40EA3401A43054B70
:103BB0000407240F083CA408A4001A5110BD0000FB
:103BC00000E100E01CED00E0EFF31080704702E040
:103BD00008C8121F08C1002AFAD170477047002098
:103BE00001E001C1121F002AFBD1704780F3108849
:103BF000704700001FB5FCF7D1FEFFF79FF9FEF7F5
:103C0000A1FBFEF77DFBFEF7FDFBFEF7DFFB1B488C
:103C1000FDF72CFD0120800219491A4B01900093F9
:103C200002910390184B194A19491A48FFF75EFA96
:103C300018480C30FEF738FB0C2217A115482C3021
:103C4000FFF7DDF813482C30FEF718FC01220221A3
:103C500005200007FCF789FE1348FCF77BFD0022D6
:103C6000022105200007FCF780FE1048FCF772FDDA
:103C7000FEF75EFD01E0FFF715FFFCE73C000020CA
:103C8000FC060020FC020020740100201801002026
:103C900088000020A002002052756E6E696E672EAB
:103CA0002E2E0D0A00000000DC0500008813000025
:103CB00070B503468D186C1E03E025781D70641ED8
:103CC0005B1C1546521E002DF7DC70BD01B50422A9
:103CD00069460348FFF793F80148FEF7CFFB08BD9C
:103CE000CC02002010B504462300FFF723FF0E6A24
:103CF0005C61686A69086A6A6A6A2C14206A3248D8
:103D0000C0788021884380302F49C87000202F4917
:103D10000870002455E02C480079082188430830B9
:103D200029490871002029490870002449E02648E3
:103D3000007910218843103023490871002023495D
:103D4000087000243DE0204800792021884320307D
:103D50001D49087108464078102188431A49487067
:103D60000846C078402188431749C8700846C07883
:103D7000082188431449C8700846C0781021884338
:103D80001149C8700846C078202188430E49C87080
:103D900008460078102188430B49087000200B4921
:103DA000087000240DE0002008490870002408E095
:103DB000FCF748FA002005490870002401E000E003
:103DC00000BF00BF10BD000004000020090000205B
:103DD000FF2D00089B2E00085D2C0008F72C000822
:103DE000372A0008A72A0008081C304458000100A0
:103DF00002000400060008000A000C001000200069
:103E0000400080000001081C3044580101010307F4
:103E1000010000080402040801010100081C3044EC
:103E2000580000000000000000000000000000003A
:103E30000000000000000000000000000000000082
:103E4000000000000100000002000000030000006C
:103E50000400000006000000070000000800000049
:103E60000900000000000000000000000000000049
:103E7000000000000100000002000000030000003C
:103E800004000000A43E0008000000202C000000F8
:103E9000CE3B0008D03E00082C000020D40E0000CD
:103EA000DE3B00080F0000000000000000000000E2
:103EB0000000000000000000000000000000000002
:103EC00004000000010000000024F40000000000D5
:04000005080000C12E
:00000001FF
